{
  "address": "0x85917980f5894740c13640Ae9Cb661b44Cd30679",
  "abi": [
    {
      "inputs": [
        {
          "internalType": "address",
          "name": "_liquidTokenAddress",
          "type": "address"
        }
      ],
      "stateMutability": "nonpayable",
      "type": "constructor"
    },
    {
      "inputs": [
        {
          "internalType": "address",
          "name": "owner",
          "type": "address"
        }
      ],
      "name": "OwnableInvalidOwner",
      "type": "error"
    },
    {
      "inputs": [
        {
          "internalType": "address",
          "name": "account",
          "type": "address"
        }
      ],
      "name": "OwnableUnauthorizedAccount",
      "type": "error"
    },
    {
      "inputs": [],
      "name": "ReentrancyGuardReentrantCall",
      "type": "error"
    },
    {
      "anonymous": false,
      "inputs": [
        {
          "indexed": true,
          "internalType": "address",
          "name": "merchant",
          "type": "address"
        },
        {
          "indexed": false,
          "internalType": "string",
          "name": "businessName",
          "type": "string"
        }
      ],
      "name": "MerchantRegistered",
      "type": "event"
    },
    {
      "anonymous": false,
      "inputs": [
        {
          "indexed": true,
          "internalType": "address",
          "name": "previousOwner",
          "type": "address"
        },
        {
          "indexed": true,
          "internalType": "address",
          "name": "newOwner",
          "type": "address"
        }
      ],
      "name": "OwnershipTransferred",
      "type": "event"
    },
    {
      "anonymous": false,
      "inputs": [
        {
          "indexed": true,
          "internalType": "address",
          "name": "student",
          "type": "address"
        },
        {
          "indexed": true,
          "internalType": "address",
          "name": "merchant",
          "type": "address"
        },
        {
          "indexed": false,
          "internalType": "uint256",
          "name": "amount",
          "type": "uint256"
        },
        {
          "indexed": false,
          "internalType": "uint256",
          "name": "timestamp",
          "type": "uint256"
        }
      ],
      "name": "PaymentProcessed",
      "type": "event"
    },
    {
      "inputs": [],
      "name": "MIN_PAYMENT",
      "outputs": [
        {
          "internalType": "uint256",
          "name": "",
          "type": "uint256"
        }
      ],
      "stateMutability": "view",
      "type": "function"
    },
    {
      "inputs": [
        {
          "internalType": "address",
          "name": "_merchant",
          "type": "address"
        }
      ],
      "name": "getMerchantInfo",
      "outputs": [
        {
          "internalType": "string",
          "name": "businessName",
          "type": "string"
        },
        {
          "internalType": "bool",
          "name": "isActive",
          "type": "bool"
        },
        {
          "internalType": "uint256",
          "name": "totalSales",
          "type": "uint256"
        },
        {
          "internalType": "uint256",
          "name": "transactionCount",
          "type": "uint256"
        }
      ],
      "stateMutability": "view",
      "type": "function"
    },
    {
      "inputs": [
        {
          "internalType": "address",
          "name": "_merchant",
          "type": "address"
        }
      ],
      "name": "getMerchantTransactions",
      "outputs": [
        {
          "components": [
            {
              "internalType": "address",
              "name": "student",
              "type": "address"
            },
            {
              "internalType": "address",
              "name": "merchant",
              "type": "address"
            },
            {
              "internalType": "uint256",
              "name": "amount",
              "type": "uint256"
            },
            {
              "internalType": "uint256",
              "name": "timestamp",
              "type": "uint256"
            }
          ],
          "internalType": "struct MerchantService.Transaction[]",
          "name": "",
          "type": "tuple[]"
        }
      ],
      "stateMutability": "view",
      "type": "function"
    },
    {
      "inputs": [
        {
          "internalType": "address",
          "name": "_student",
          "type": "address"
        }
      ],
      "name": "getStudentTransactions",
      "outputs": [
        {
          "components": [
            {
              "internalType": "address",
              "name": "student",
              "type": "address"
            },
            {
              "internalType": "address",
              "name": "merchant",
              "type": "address"
            },
            {
              "internalType": "uint256",
              "name": "amount",
              "type": "uint256"
            },
            {
              "internalType": "uint256",
              "name": "timestamp",
              "type": "uint256"
            }
          ],
          "internalType": "struct MerchantService.Transaction[]",
          "name": "",
          "type": "tuple[]"
        }
      ],
      "stateMutability": "view",
      "type": "function"
    },
    {
      "inputs": [
        {
          "internalType": "address",
          "name": "",
          "type": "address"
        }
      ],
      "name": "isMerchant",
      "outputs": [
        {
          "internalType": "bool",
          "name": "",
          "type": "bool"
        }
      ],
      "stateMutability": "view",
      "type": "function"
    },
    {
      "inputs": [],
      "name": "liquidToken",
      "outputs": [
        {
          "internalType": "contract IERC20",
          "name": "",
          "type": "address"
        }
      ],
      "stateMutability": "view",
      "type": "function"
    },
    {
      "inputs": [
        {
          "internalType": "address",
          "name": "",
          "type": "address"
        },
        {
          "internalType": "uint256",
          "name": "",
          "type": "uint256"
        }
      ],
      "name": "merchantTransactions",
      "outputs": [
        {
          "internalType": "address",
          "name": "student",
          "type": "address"
        },
        {
          "internalType": "address",
          "name": "merchant",
          "type": "address"
        },
        {
          "internalType": "uint256",
          "name": "amount",
          "type": "uint256"
        },
        {
          "internalType": "uint256",
          "name": "timestamp",
          "type": "uint256"
        }
      ],
      "stateMutability": "view",
      "type": "function"
    },
    {
      "inputs": [
        {
          "internalType": "address",
          "name": "",
          "type": "address"
        }
      ],
      "name": "merchants",
      "outputs": [
        {
          "internalType": "address",
          "name": "walletAddress",
          "type": "address"
        },
        {
          "internalType": "string",
          "name": "businessName",
          "type": "string"
        },
        {
          "internalType": "bool",
          "name": "isActive",
          "type": "bool"
        },
        {
          "internalType": "uint256",
          "name": "totalSales",
          "type": "uint256"
        },
        {
          "internalType": "uint256",
          "name": "transactionCount",
          "type": "uint256"
        }
      ],
      "stateMutability": "view",
      "type": "function"
    },
    {
      "inputs": [],
      "name": "owner",
      "outputs": [
        {
          "internalType": "address",
          "name": "",
          "type": "address"
        }
      ],
      "stateMutability": "view",
      "type": "function"
    },
    {
      "inputs": [
        {
          "internalType": "address",
          "name": "_merchant",
          "type": "address"
        },
        {
          "internalType": "uint256",
          "name": "_amount",
          "type": "uint256"
        }
      ],
      "name": "receivePayment",
      "outputs": [],
      "stateMutability": "nonpayable",
      "type": "function"
    },
    {
      "inputs": [
        {
          "internalType": "string",
          "name": "_businessName",
          "type": "string"
        }
      ],
      "name": "registerMerchant",
      "outputs": [],
      "stateMutability": "nonpayable",
      "type": "function"
    },
    {
      "inputs": [],
      "name": "renounceOwnership",
      "outputs": [],
      "stateMutability": "nonpayable",
      "type": "function"
    },
    {
      "inputs": [
        {
          "internalType": "address",
          "name": "",
          "type": "address"
        },
        {
          "internalType": "uint256",
          "name": "",
          "type": "uint256"
        }
      ],
      "name": "studentTransactions",
      "outputs": [
        {
          "internalType": "address",
          "name": "student",
          "type": "address"
        },
        {
          "internalType": "address",
          "name": "merchant",
          "type": "address"
        },
        {
          "internalType": "uint256",
          "name": "amount",
          "type": "uint256"
        },
        {
          "internalType": "uint256",
          "name": "timestamp",
          "type": "uint256"
        }
      ],
      "stateMutability": "view",
      "type": "function"
    },
    {
      "inputs": [
        {
          "internalType": "address",
          "name": "_merchant",
          "type": "address"
        }
      ],
      "name": "toggleMerchantStatus",
      "outputs": [],
      "stateMutability": "nonpayable",
      "type": "function"
    },
    {
      "inputs": [
        {
          "internalType": "address",
          "name": "newOwner",
          "type": "address"
        }
      ],
      "name": "transferOwnership",
      "outputs": [],
      "stateMutability": "nonpayable",
      "type": "function"
    }
  ],
  "transactionHash": "0x5665368dbcbc9c2790bc5c948086389129ea55f5f0933f9640d3e943df6f022d",
  "args": [
    "0x11DFC652eb62c723ad8c2ae731FcEdE58aB07564"
  ],
  "numDeployments": 1,
  "solcInputHash": "1176581e4e8e1ae91f5e7b59bf8c231f",
  "bytecode": "0x60a060405234801561001057600080fd5b5060405161152438038061152483398101604081905261002f9161011b565b338061005657604051631e4fbdf760e01b8152600060048201526024015b60405180910390fd5b61005f816100cb565b50600180556001600160a01b0381166100ba5760405162461bcd60e51b815260206004820152601560248201527f496e76616c696420746f6b656e20616464726573730000000000000000000000604482015260640161004d565b6001600160a01b031660805261014b565b600080546001600160a01b038381166001600160a01b0319831681178455604051919092169283917f8be0079c531659141344cd1fd0a4f28419497f9722a3daafe3b4186f6b6457e09190a35050565b60006020828403121561012d57600080fd5b81516001600160a01b038116811461014457600080fd5b9392505050565b6080516113a961017b600039600081816101930152818161066301528181610738015261082101526113a96000f3fe608060405234801561001057600080fd5b50600436106100f55760003560e01c806380b503d411610097578063eb566e9111610066578063eb566e911461025d578063ed7bdc9f1461027a578063ee14e9391461028d578063f2fde38b146102b157600080fd5b806380b503d4146101e85780638da5cb5b14610226578063ad5d5b7c14610237578063b3ff98131461024a57600080fd5b80635259b9ab116100d35780635259b9ab1461017957806366cd5dc71461018e57806369849616146101cd578063715018a6146101e057600080fd5b80630e733ef1146100fa5780631a2f71671461012657806340e96ee514610159575b600080fd5b61010d610108366004610f7c565b6102c4565b60405161011d9493929190610fe4565b60405180910390f35b610149610134366004610f7c565b60036020526000908152604090205460ff1681565b604051901515815260200161011d565b61016c610167366004610f7c565b6103dd565b60405161011d9190611013565b61018c610187366004611083565b610482565b005b6101b57f000000000000000000000000000000000000000000000000000000000000000081565b6040516001600160a01b03909116815260200161011d565b61016c6101db366004610f7c565b610a61565b61018c610af8565b6101fb6101f6366004611083565b610b0c565b604080516001600160a01b03958616815294909316602085015291830152606082015260800161011d565b6000546001600160a01b03166101b5565b61018c6102453660046110c3565b610b5e565b61018c610258366004610f7c565b610cfb565b61026c670de0b6b3a764000081565b60405190815260200161011d565b6101fb610288366004611083565b610d98565b6102a061029b366004610f7c565b610db4565b60405161011d959493929190611174565b61018c6102bf366004610f7c565b610e7b565b6001600160a01b038082166000908152600260209081526040808320815160a081019092528054909416815260018401805460609585948594859490939184019161030e906111b5565b80601f016020809104026020016040519081016040528092919081815260200182805461033a906111b5565b80156103875780601f1061035c57610100808354040283529160200191610387565b820191906000526020600020905b81548152906001019060200180831161036a57829003601f168201915b5050509183525050600282015460ff161515602080830191909152600383015460408084019190915260049093015460609283015283015191830151908301516080909301519199909850919650945092505050565b6001600160a01b0381166000908152600460209081526040808320805482518185028101850190935280835260609492939192909184015b82821015610477576000848152602090819020604080516080810182526004860290920180546001600160a01b039081168452600180830154909116848601526002820154928401929092526003015460608301529083529092019101610415565b505050509050919050565b61048a610eb9565b6001600160a01b0382166104e55760405162461bcd60e51b815260206004820152601860248201527f496e76616c6964206d65726368616e742061646472657373000000000000000060448201526064015b60405180910390fd5b6001600160a01b03821660009081526003602052604090205460ff1661054d5760405162461bcd60e51b815260206004820152601760248201527f4d65726368616e74206e6f74207265676973746572656400000000000000000060448201526064016104dc565b6001600160a01b0382166000908152600260208190526040909120015460ff166105af5760405162461bcd60e51b81526020600482015260136024820152724d65726368616e74206e6f742061637469766560681b60448201526064016104dc565b670de0b6b3a76400008110156105fe5760405162461bcd60e51b8152602060048201526014602482015273416d6f756e742062656c6f77206d696e696d756d60601b60448201526064016104dc565b6001600160a01b038216330361064c5760405162461bcd60e51b815260206004820152601360248201527221b0b73737ba103830bc903cb7bab939b2b63360691b60448201526064016104dc565b6040516370a0823160e01b815233600482015281907f00000000000000000000000000000000000000000000000000000000000000006001600160a01b0316906370a0823190602401602060405180830381865afa1580156106b2573d6000803e3d6000fd5b505050506040513d601f19601f820116820180604052508101906106d691906111ef565b101561071b5760405162461bcd60e51b8152602060048201526014602482015273496e73756666696369656e742062616c616e636560601b60448201526064016104dc565b604051636eb1769f60e11b815233600482015230602482015281907f00000000000000000000000000000000000000000000000000000000000000006001600160a01b03169063dd62ed3e90604401602060405180830381865afa158015610787573d6000803e3d6000fd5b505050506040513d601f19601f820116820180604052508101906107ab91906111ef565b10156107f25760405162461bcd60e51b8152602060048201526016602482015275496e73756666696369656e7420616c6c6f77616e636560501b60448201526064016104dc565b6040516323b872dd60e01b81523360048201526001600160a01b038381166024830152604482018390526000917f0000000000000000000000000000000000000000000000000000000000000000909116906323b872dd906064016020604051808303816000875af115801561086c573d6000803e3d6000fd5b505050506040513d601f19601f820116820180604052508101906108909190611208565b9050806108df5760405162461bcd60e51b815260206004820152601760248201527f5061796d656e74207472616e73666572206661696c656400000000000000000060448201526064016104dc565b6001600160a01b0383166000908152600260205260408120600301805484929061090a90849061122a565b90915550506001600160a01b038316600090815260026020526040812060040180546001929061093b90849061122a565b909155505060408051608081018252338082526001600160a01b0386811660208085018281528587018981524260608801818152600086815260048087528b82208054600180820183559184528884208d51918402018054918c166001600160a01b031992831617815588518184018054918e16918416919091179055875160028083019190915586516003928301558d865260058b528f862080548086018255908752958b90208f51969095029094018054958d169583169590951785559751918401805492909b16911617909855925196830196909655945191015585518881529081019290925292937fa6c1325e03b867ee45303c64111dc7e52670f1da44597390374b5210cda6508d910160405180910390a35050610a5d60018055565b5050565b6001600160a01b0381166000908152600560209081526040808320805482518185028101850190935280835260609492939192909184018215610477576000848152602090819020604080516080810182526004860290920180546001600160a01b039081168452600180830154909116848601526002820154928401929092526003015460608301529083529092019101610415565b610b00610ee3565b610b0a6000610f10565b565b60056020528160005260406000208181548110610b2857600080fd5b600091825260209091206004909102018054600182015460028301546003909301546001600160a01b0392831695509116925084565b3360009081526003602052604090205460ff1615610bbe5760405162461bcd60e51b815260206004820152601e60248201527f416c72656164792072656769737465726564206173206d65726368616e74000060448201526064016104dc565b6000815111610c085760405162461bcd60e51b8152602060048201526016602482015275109d5cda5b995cdcc81b985b59481c995c5d5a5c995960521b60448201526064016104dc565b6040805160a081018252338082526020808301858152600184860181905260006060860181905260808601819052938452600290925293909120825181546001600160a01b0319166001600160a01b03909116178155925191929190820190610c7190826112a0565b5060408281015160028301805491151560ff199283161790556060840151600380850191909155608090940151600490930192909255336000818152602094909452928190208054909216600117909155517fec31b5c87ea82f60c8bc1dd8262f275183d0d7bc8c37cdbbfd74130441818fbc90610cf0908490611360565b60405180910390a250565b610d03610ee3565b6001600160a01b03811660009081526003602052604090205460ff16610d6b5760405162461bcd60e51b815260206004820152601960248201527f4e6f7420612072656769737465726564206d65726368616e740000000000000060448201526064016104dc565b6001600160a01b0316600090815260026020819052604090912001805460ff19811660ff90911615179055565b60046020528160005260406000208181548110610b2857600080fd5b600260205260009081526040902080546001820180546001600160a01b039092169291610de0906111b5565b80601f0160208091040260200160405190810160405280929190818152602001828054610e0c906111b5565b8015610e595780601f10610e2e57610100808354040283529160200191610e59565b820191906000526020600020905b815481529060010190602001808311610e3c57829003601f168201915b5050505060028301546003840154600490940154929360ff9091169290915085565b610e83610ee3565b6001600160a01b038116610ead57604051631e4fbdf760e01b8152600060048201526024016104dc565b610eb681610f10565b50565b600260015403610edc57604051633ee5aeb560e01b815260040160405180910390fd5b6002600155565b6000546001600160a01b03163314610b0a5760405163118cdaa760e01b81523360048201526024016104dc565b600080546001600160a01b038381166001600160a01b0319831681178455604051919092169283917f8be0079c531659141344cd1fd0a4f28419497f9722a3daafe3b4186f6b6457e09190a35050565b80356001600160a01b0381168114610f7757600080fd5b919050565b600060208284031215610f8e57600080fd5b610f9782610f60565b9392505050565b6000815180845260005b81811015610fc457602081850181015186830182015201610fa8565b506000602082860101526020601f19601f83011685010191505092915050565b608081526000610ff76080830187610f9e565b9415156020830152506040810192909252606090910152919050565b602080825282518282018190526000919060409081850190868401855b8281101561107657815180516001600160a01b03908116865287820151168786015285810151868601526060908101519085015260809093019290850190600101611030565b5091979650505050505050565b6000806040838503121561109657600080fd5b61109f83610f60565b946020939093013593505050565b634e487b7160e01b600052604160045260246000fd5b6000602082840312156110d557600080fd5b813567ffffffffffffffff808211156110ed57600080fd5b818401915084601f83011261110157600080fd5b813581811115611113576111136110ad565b604051601f8201601f19908116603f0116810190838211818310171561113b5761113b6110ad565b8160405282815287602084870101111561115457600080fd5b826020860160208301376000928101602001929092525095945050505050565b6001600160a01b038616815260a06020820181905260009061119890830187610f9e565b941515604083015250606081019290925260809091015292915050565b600181811c908216806111c957607f821691505b6020821081036111e957634e487b7160e01b600052602260045260246000fd5b50919050565b60006020828403121561120157600080fd5b5051919050565b60006020828403121561121a57600080fd5b81518015158114610f9757600080fd5b8082018082111561124b57634e487b7160e01b600052601160045260246000fd5b92915050565b601f82111561129b57600081815260208120601f850160051c810160208610156112785750805b601f850160051c820191505b8181101561129757828155600101611284565b5050505b505050565b815167ffffffffffffffff8111156112ba576112ba6110ad565b6112ce816112c884546111b5565b84611251565b602080601f83116001811461130357600084156112eb5750858301515b600019600386901b1c1916600185901b178555611297565b600085815260208120601f198616915b8281101561133257888601518255948401946001909101908401611313565b50858210156113505787850151600019600388901b60f8161c191681555b5050505050600190811b01905550565b602081526000610f976020830184610f9e56fea2646970667358221220544050d23a346e78d77d2a5efd24bbe6e9d9a528012b414f1c0389d1e5d2e2a364736f6c63430008140033",
  "devdoc": {
    "author": "LiquidQuick Team",
    "details": "A smart contract for handling micro-payments between students and merchants",
    "errors": {
      "OwnableInvalidOwner(address)": [
        {
          "details": "The owner is not a valid owner account. (eg. `address(0)`)"
        }
      ],
      "OwnableUnauthorizedAccount(address)": [
        {
          "details": "The caller account is not authorized to perform an operation."
        }
      ],
      "ReentrancyGuardReentrantCall()": [
        {
          "details": "Unauthorized reentrant call."
        }
      ]
    },
    "kind": "dev",
    "methods": {
      "constructor": {
        "details": "Constructor sets the Liquid token address",
        "params": {
          "_liquidTokenAddress": "The address of the Liquid token contract"
        }
      },
      "getMerchantInfo(address)": {
        "details": "Get merchant information",
        "params": {
          "_merchant": "The merchant's address"
        }
      },
      "getMerchantTransactions(address)": {
        "details": "Get transaction history for a merchant",
        "params": {
          "_merchant": "The merchant's address"
        }
      },
      "getStudentTransactions(address)": {
        "details": "Get transaction history for a student",
        "params": {
          "_student": "The student's address"
        }
      },
      "owner()": {
        "details": "Returns the address of the current owner."
      },
      "receivePayment(address,uint256)": {
        "details": "Process payment from student to merchant",
        "params": {
          "_amount": "The payment amount in LIQUID tokens",
          "_merchant": "The merchant's wallet address"
        }
      },
      "registerMerchant(string)": {
        "details": "Register a new merchant",
        "params": {
          "_businessName": "The name of the merchant's business"
        }
      },
      "renounceOwnership()": {
        "details": "Leaves the contract without owner. It will not be possible to call `onlyOwner` functions. Can only be called by the current owner. NOTE: Renouncing ownership will leave the contract without an owner, thereby disabling any functionality that is only available to the owner."
      },
      "toggleMerchantStatus(address)": {
        "details": "Toggle merchant active status (only owner)",
        "params": {
          "_merchant": "The merchant's address"
        }
      },
      "transferOwnership(address)": {
        "details": "Transfers ownership of the contract to a new account (`newOwner`). Can only be called by the current owner."
      }
    },
    "title": "MerchantService",
    "version": 1
  },
  "userdoc": {
    "kind": "user",
    "methods": {},
    "version": 1
  },
  "storageLayout": {
    "storage": [
      {
        "astId": 8,
        "contract": "contracts/MerchantService.sol:MerchantService",
        "label": "_owner",
        "offset": 0,
        "slot": "0",
        "type": "t_address"
      },
      {
        "astId": 266,
        "contract": "contracts/MerchantService.sol:MerchantService",
        "label": "_status",
        "offset": 0,
        "slot": "1",
        "type": "t_uint256"
      },
      {
        "astId": 365,
        "contract": "contracts/MerchantService.sol:MerchantService",
        "label": "merchants",
        "offset": 0,
        "slot": "2",
        "type": "t_mapping(t_address,t_struct(Merchant)351_storage)"
      },
      {
        "astId": 369,
        "contract": "contracts/MerchantService.sol:MerchantService",
        "label": "isMerchant",
        "offset": 0,
        "slot": "3",
        "type": "t_mapping(t_address,t_bool)"
      },
      {
        "astId": 375,
        "contract": "contracts/MerchantService.sol:MerchantService",
        "label": "merchantTransactions",
        "offset": 0,
        "slot": "4",
        "type": "t_mapping(t_address,t_array(t_struct(Transaction)360_storage)dyn_storage)"
      },
      {
        "astId": 381,
        "contract": "contracts/MerchantService.sol:MerchantService",
        "label": "studentTransactions",
        "offset": 0,
        "slot": "5",
        "type": "t_mapping(t_address,t_array(t_struct(Transaction)360_storage)dyn_storage)"
      }
    ],
    "types": {
      "t_address": {
        "encoding": "inplace",
        "label": "address",
        "numberOfBytes": "20"
      },
      "t_array(t_struct(Transaction)360_storage)dyn_storage": {
        "base": "t_struct(Transaction)360_storage",
        "encoding": "dynamic_array",
        "label": "struct MerchantService.Transaction[]",
        "numberOfBytes": "32"
      },
      "t_bool": {
        "encoding": "inplace",
        "label": "bool",
        "numberOfBytes": "1"
      },
      "t_mapping(t_address,t_array(t_struct(Transaction)360_storage)dyn_storage)": {
        "encoding": "mapping",
        "key": "t_address",
        "label": "mapping(address => struct MerchantService.Transaction[])",
        "numberOfBytes": "32",
        "value": "t_array(t_struct(Transaction)360_storage)dyn_storage"
      },
      "t_mapping(t_address,t_bool)": {
        "encoding": "mapping",
        "key": "t_address",
        "label": "mapping(address => bool)",
        "numberOfBytes": "32",
        "value": "t_bool"
      },
      "t_mapping(t_address,t_struct(Merchant)351_storage)": {
        "encoding": "mapping",
        "key": "t_address",
        "label": "mapping(address => struct MerchantService.Merchant)",
        "numberOfBytes": "32",
        "value": "t_struct(Merchant)351_storage"
      },
      "t_string_storage": {
        "encoding": "bytes",
        "label": "string",
        "numberOfBytes": "32"
      },
      "t_struct(Merchant)351_storage": {
        "encoding": "inplace",
        "label": "struct MerchantService.Merchant",
        "members": [
          {
            "astId": 342,
            "contract": "contracts/MerchantService.sol:MerchantService",
            "label": "walletAddress",
            "offset": 0,
            "slot": "0",
            "type": "t_address"
          },
          {
            "astId": 344,
            "contract": "contracts/MerchantService.sol:MerchantService",
            "label": "businessName",
            "offset": 0,
            "slot": "1",
            "type": "t_string_storage"
          },
          {
            "astId": 346,
            "contract": "contracts/MerchantService.sol:MerchantService",
            "label": "isActive",
            "offset": 0,
            "slot": "2",
            "type": "t_bool"
          },
          {
            "astId": 348,
            "contract": "contracts/MerchantService.sol:MerchantService",
            "label": "totalSales",
            "offset": 0,
            "slot": "3",
            "type": "t_uint256"
          },
          {
            "astId": 350,
            "contract": "contracts/MerchantService.sol:MerchantService",
            "label": "transactionCount",
            "offset": 0,
            "slot": "4",
            "type": "t_uint256"
          }
        ],
        "numberOfBytes": "160"
      },
      "t_struct(Transaction)360_storage": {
        "encoding": "inplace",
        "label": "struct MerchantService.Transaction",
        "members": [
          {
            "astId": 353,
            "contract": "contracts/MerchantService.sol:MerchantService",
            "label": "student",
            "offset": 0,
            "slot": "0",
            "type": "t_address"
          },
          {
            "astId": 355,
            "contract": "contracts/MerchantService.sol:MerchantService",
            "label": "merchant",
            "offset": 0,
            "slot": "1",
            "type": "t_address"
          },
          {
            "astId": 357,
            "contract": "contracts/MerchantService.sol:MerchantService",
            "label": "amount",
            "offset": 0,
            "slot": "2",
            "type": "t_uint256"
          },
          {
            "astId": 359,
            "contract": "contracts/MerchantService.sol:MerchantService",
            "label": "timestamp",
            "offset": 0,
            "slot": "3",
            "type": "t_uint256"
          }
        ],
        "numberOfBytes": "128"
      },
      "t_uint256": {
        "encoding": "inplace",
        "label": "uint256",
        "numberOfBytes": "32"
      }
    }
  }
}